{
  "contractName": "Nomad",
  "abi": [
    {
      "constant": true,
      "inputs": [],
      "name": "totalItems",
      "outputs": [
        {
          "name": "",
          "type": "uint256"
        }
      ],
      "payable": false,
      "stateMutability": "view",
      "type": "function"
    },
    {
      "constant": true,
      "inputs": [
        {
          "name": "",
          "type": "uint256"
        }
      ],
      "name": "worlds",
      "outputs": [
        {
          "name": "worldAddress",
          "type": "address"
        },
        {
          "name": "numItems",
          "type": "uint256"
        },
        {
          "name": "name",
          "type": "string"
        }
      ],
      "payable": false,
      "stateMutability": "view",
      "type": "function"
    },
    {
      "constant": true,
      "inputs": [],
      "name": "owner",
      "outputs": [
        {
          "name": "",
          "type": "address"
        }
      ],
      "payable": false,
      "stateMutability": "view",
      "type": "function"
    },
    {
      "constant": true,
      "inputs": [
        {
          "name": "",
          "type": "uint256"
        }
      ],
      "name": "itemInWorld",
      "outputs": [
        {
          "name": "",
          "type": "uint256"
        }
      ],
      "payable": false,
      "stateMutability": "view",
      "type": "function"
    },
    {
      "inputs": [
        {
          "name": "_NomadAssetAddress",
          "type": "address"
        }
      ],
      "payable": false,
      "stateMutability": "nonpayable",
      "type": "constructor"
    },
    {
      "constant": false,
      "inputs": [
        {
          "name": "_name",
          "type": "string"
        },
        {
          "name": "_worldAddress",
          "type": "address"
        }
      ],
      "name": "createWorld",
      "outputs": [],
      "payable": false,
      "stateMutability": "nonpayable",
      "type": "function"
    },
    {
      "constant": false,
      "inputs": [
        {
          "name": "_worldIdx",
          "type": "uint256"
        },
        {
          "name": "_name",
          "type": "string"
        },
        {
          "name": "_quantity",
          "type": "uint256"
        }
      ],
      "name": "vote",
      "outputs": [],
      "payable": false,
      "stateMutability": "nonpayable",
      "type": "function"
    },
    {
      "constant": true,
      "inputs": [
        {
          "name": "_worldIdx",
          "type": "uint256"
        },
        {
          "name": "_itemId",
          "type": "uint256"
        }
      ],
      "name": "findItem",
      "outputs": [
        {
          "name": "_name",
          "type": "string"
        },
        {
          "name": "_quantity",
          "type": "uint256"
        }
      ],
      "payable": false,
      "stateMutability": "view",
      "type": "function"
    },
    {
      "constant": true,
      "inputs": [
        {
          "name": "_worldIdx",
          "type": "uint256"
        }
      ],
      "name": "findWorld",
      "outputs": [
        {
          "name": "_worldAddress",
          "type": "address"
        },
        {
          "name": "_numItems",
          "type": "uint256"
        },
        {
          "name": "_name",
          "type": "string"
        }
      ],
      "payable": false,
      "stateMutability": "view",
      "type": "function"
    }
  ],
  "bytecode": "0x608060405234801561001057600080fd5b50604051602080610cad8339810180604052810190808051906020019092919050505033600160006101000a81548173ffffffffffffffffffffffffffffffffffffffff021916908373ffffffffffffffffffffffffffffffffffffffff160217905550806000806101000a81548173ffffffffffffffffffffffffffffffffffffffff021916908373ffffffffffffffffffffffffffffffffffffffff16021790555050610be9806100c46000396000f30060806040526004361061008e576000357c0100000000000000000000000000000000000000000000000000000000900463ffffffff1680632799276d1461009357806337d786b5146100be5780633a1956ce1461019e5780634dab62e71461027e5780638da5cb5b14610307578063a13480831461035e578063e51b108214610415578063f0f4545714610456575b600080fd5b34801561009f57600080fd5b506100a86104d3565b6040518082815260200191505060405180910390f35b3480156100ca57600080fd5b506100e9600480360381019080803590602001909291905050506104d9565b604051808473ffffffffffffffffffffffffffffffffffffffff1673ffffffffffffffffffffffffffffffffffffffff16815260200183815260200180602001828103825283818151815260200191508051906020019080838360005b83811015610161578082015181840152602081019050610146565b50505050905090810190601f16801561018e5780820380516001836020036101000a031916815260200191505b5094505050505060405180910390f35b3480156101aa57600080fd5b506101c9600480360381019080803590602001909291905050506105d4565b604051808473ffffffffffffffffffffffffffffffffffffffff1673ffffffffffffffffffffffffffffffffffffffff16815260200183815260200180602001828103825283818151815260200191508051906020019080838360005b83811015610241578082015181840152602081019050610226565b50505050905090810190601f16801561026e5780820380516001836020036101000a031916815260200191505b5094505050505060405180910390f35b34801561028a57600080fd5b50610305600480360381019080803590602001908201803590602001908080601f0160208091040260200160405190810160405280939291908181526020018383808284378201915050505050509192919290803573ffffffffffffffffffffffffffffffffffffffff1690602001909291905050506106c5565b005b34801561031357600080fd5b5061031c61079a565b604051808273ffffffffffffffffffffffffffffffffffffffff1673ffffffffffffffffffffffffffffffffffffffff16815260200191505060405180910390f35b34801561036a57600080fd5b5061039360048036038101908080359060200190929190803590602001909291905050506107c0565b6040518080602001838152602001828103825284818151815260200191508051906020019080838360005b838110156103d95780820151818401526020810190506103be565b50505050905090810190601f1680156104065780820380516001836020036101000a031916815260200191505b50935050505060405180910390f35b34801561042157600080fd5b50610440600480360381019080803590602001909291905050506108a6565b6040518082815260200191505060405180910390f35b34801561046257600080fd5b506104d160048036038101908080359060200190929190803590602001908201803590602001908080601f0160208091040260200160405190810160405280939291908181526020018383808284378201915050505050509192919290803590602001909291905050506108be565b005b60025481565b600080606060006004858154811015156104ef57fe5b906000526020600020906004020190508060010160009054906101000a900473ffffffffffffffffffffffffffffffffffffffff16935080600201549250806003018054600181600116156101000203166002900480601f0160208091040260200160405190810160405280929190818152602001828054600181600116156101000203166002900480156105c55780601f1061059a576101008083540402835291602001916105c5565b820191906000526020600020905b8154815290600101906020018083116105a857829003601f168201915b50505050509150509193909250565b6004818154811015156105e357fe5b90600052602060002090600402016000915090508060010160009054906101000a900473ffffffffffffffffffffffffffffffffffffffff1690806002015490806003018054600181600116156101000203166002900480601f0160208091040260200160405190810160405280929190818152602001828054600181600116156101000203166002900480156106bb5780601f10610690576101008083540402835291602001916106bb565b820191906000526020600020905b81548152906001019060200180831161069e57829003601f168201915b5050505050905083565b60046060604051908101604052808373ffffffffffffffffffffffffffffffffffffffff16815260200160008152602001848152509080600181540180825580915050906001820390600052602060002090600402016000909192909190915060008201518160010160006101000a81548173ffffffffffffffffffffffffffffffffffffffff021916908373ffffffffffffffffffffffffffffffffffffffff160217905550602082015181600201556040820151816003019080519060200190610792929190610b18565b505050505050565b600160009054906101000a900473ffffffffffffffffffffffffffffffffffffffff1681565b60606000806004858154811015156107d457fe5b906000526020600020906004020160000160008581526020019081526020016000209050806000018054600181600116156101000203166002900480601f0160208091040260200160405190810160405280929190818152602001828054600181600116156101000203166002900480156108905780601f1061086557610100808354040283529160200191610890565b820191906000526020600020905b81548152906001019060200180831161087357829003601f168201915b5050505050925080600101549150509250929050565b60036020528060005260406000206000915090505481565b60008060006004868154811015156108d257fe5b9060005260206000209060040201925060408051908101604052808681526020018581525083600001600085600201548152602001908152602001600020600082015181600001908051906020019061092c929190610b18565b5060208201518160010155905050600191505b8382111515610afc5760016002540190506000809054906101000a900473ffffffffffffffffffffffffffffffffffffffff1673ffffffffffffffffffffffffffffffffffffffff1663f45a33a986888660010160009054906101000a900473ffffffffffffffffffffffffffffffffffffffff16856040518563ffffffff167c010000000000000000000000000000000000000000000000000000000002815260040180806020018581526020018473ffffffffffffffffffffffffffffffffffffffff1673ffffffffffffffffffffffffffffffffffffffff168152602001838152602001828103825286818151815260200191508051906020019080838360005b83811015610a5e578082015181840152602081019050610a43565b50505050905090810190601f168015610a8b5780820380516001836020036101000a031916815260200191505b5095505050505050600060405180830381600087803b158015610aad57600080fd5b505af1158015610ac1573d6000803e3d6000fd5b50505050856003600083815260200190815260200160002081905550600260008154809291906001019190505550818060010192505061093f565b8260020160008154809291906001019190505550505050505050565b828054600181600116156101000203166002900490600052602060002090601f016020900481019282601f10610b5957805160ff1916838001178555610b87565b82800160010185558215610b87579182015b82811115610b86578251825591602001919060010190610b6b565b5b509050610b949190610b98565b5090565b610bba91905b80821115610bb6576000816000905550600101610b9e565b5090565b905600a165627a7a7230582094d8a76f8198c184a01e2fcbac9629d8a2d24b901269f8a0bb808177e7e67f630029",
  "source": "pragma solidity ^0.4.18;\nimport \"./NomadAsset.sol\";\n\ncontract Nomad {\n  NomadAsset NomadAssetContract;\n  address public owner;\n  uint256 public totalItems;\n\n  mapping(uint256 => uint256) public itemInWorld;\n\n  struct Item {\n    string name;\n    uint quantity;\n  }\n\n  struct World {\n    mapping(uint => Item) items;\n    address worldAddress;\n    uint numItems;\n    string name;\n  }\n\n  function Nomad(address _NomadAssetAddress) public {\n    // take in the ERC721 address\n    owner = msg.sender;\n    NomadAssetContract = NomadAsset(_NomadAssetAddress);\n  }\n\n  World[] public worlds;\n\n  function createWorld(string _name, address _worldAddress) public {\n    worlds.push(World({name: _name, numItems: 0, worldAddress: _worldAddress}));\n  }\n\n  function vote(uint _worldIdx, string _name, uint _quantity) public {\n    World storage world = worlds[_worldIdx];\n    world.items[world.numItems] = Item(_name, _quantity); // <-- where we should plug in Cody's ERC721\n    for(uint i = 1; i <= _quantity; i ++) {\n        uint itemId = totalItems + 1;\n        NomadAssetContract.createItem(_name, _worldIdx, world.worldAddress, itemId);\n        itemInWorld[itemId] = _worldIdx;\n        totalItems++;\n    }\n    world.numItems++;\n  }\n\n  function findItem(uint _worldIdx, uint _itemId) public view returns(string _name, uint _quantity) {\n    Item storage item = worlds[_worldIdx].items[_itemId];\n    _name = item.name;\n    _quantity = item.quantity;\n  }\n\n  function findWorld(uint _worldIdx) public view returns(address _worldAddress, uint _numItems, string _name) {\n      World storage world = worlds[_worldIdx];\n      _worldAddress = world.worldAddress;\n      _numItems = world.numItems;\n      _name = world.name;\n  }\n}\n",
  "sourcePath": "/home/cody/Desktop/Nomad/Nomad/truffle/contracts/Nomad.sol",
  "compiler": {
    "name": "solc",
    "version": "0.4.24+commit.e67f0147.Emscripten.clang"
  },
  "schemaVersion": "2.0.0",
  "updatedAt": "2018-10-06T23:53:52.341Z"
}